:020000040800F2
:100000006808002005050008610500084F09000880
:100010006105000861050008610500080000000096
:100020000000000000000000000000006105000862
:100030006105000800000000610500086105000876
:1000400061050008610500086105000861050008F8
:1000500061050008610500086105000861050008E8
:1000600061050008610500086105000861050008D8
:1000700061050008610500086105000861050008C8
:1000800061050008610500086105000861050008B8
:1000900061050008610500086105000861050008A8
:1000A0006105000861050008610500086105000898
:1000B000610B000861050008610500086105000882
:1000C0006105000861050008610500086105000878
:1000D0006105000861050008610500086105000868
:1000E0006105000861050008610500086105000858
:1000F0006105000861050008610500086105000848
:100100006105000861050008610500086105000837
:100110006105000861050008610500086105000827
:100120006105000861050008610500086105000817
:100130005FF808F180B582B000AF7860154B1B788E
:100140005A1CD1B2134A11701A467B68D9B2124BAD
:100150009954104B1B781A460F4B002199540D4BA4
:100160001B7801330F2B05D87B680A2B02D07B68E4
:10017000002B0CD1074B00221A70074B04201946A4
:10018000002200F0DBFB0346002B00D000BF083745
:10019000BD4680BD5C0400204C04002080B485B0C6
:1001A00000AF786039600023FB817B681B88FB818E
:1001B0007B682E4A934213D07B682D4A93420FD01E
:1001C0007B68B3F1804F0BD07B682A4A934207D0FB
:1001D0007B68294A934203D07B68284A934208D11E
:1001E000FB8923F07003FB813B685A88FB8913432A
:1001F000FB817B68224A93420CD07B68214A934260
:1002000008D0FB8923F44073FB813B68DA88FB89C3
:100210001343FB817B68FA891A803B689A887B6864
:100220009A853B681A887B681A857B680F4A9342D7
:100230000FD07B680E4A93420BD07B68124A9342E0
:1002400007D07B68114A934203D07B68104A9342DF
:1002500004D13B681B7A9AB27B681A867B680122BC
:100260009A821437BD465DF8047B7047002C01402C
:10027000003401400004004000080040000C004031
:1002800000100040001400400040014000440140C4
:100290000048014080B483B000AF78600B46FB702B
:1002A000FB78002B08D07B681B889BB243F00103CE
:1002B0009AB27B681A8007E07B681B889BB223F0A8
:1002C00001039AB27B681A800C37BD465DF8047B47
:1002D000704700BF80B483B000AF78600B467B806E
:1002E00013467B707B78002B08D07B689B899AB281
:1002F0007B8813439AB27B689A8109E07B689B896B
:100300009AB27B88DB439BB213409AB27B689A8196
:100310000C37BD465DF8047B704700BF80B485B0E4
:1003200000AF78600B467B800023FB730023BB810A
:1003300000237B817B681B8A9AB27B881340BB8138
:100340007B689B899AB27B8813407B81BB89002B99
:1003500005D07B89002B02D00123FB7301E0002331
:10036000FB73FB7B18461437BD465DF8047B704772
:1003700080B483B000AF78600B467B807B88DB4322
:100380009AB27B681A820C37BD465DF8047B7047D1
:1003900080B500AF154A154B1B6843F0010313608D
:1003A0001249124B5A68124B13404B600F4A0F4BC5
:1003B0001B6823F0847323F4803313600B4A0B4BC8
:1003C0001B6823F480231360084A084B5B6823F4FE
:1003D000FE035360054B4FF41F029A6000F00CF8C7
:1003E000044B4FF000629A6080BD00BF00100240D5
:1003F0000000FFF800ED00E080B500AF00F002F86B
:1004000080BD00BF80B483B000AF00237B600023B9
:100410003B603A4A394B1B6843F480331360374BD7
:100420001B6803F400333B607B6801337B603B68EF
:10043000002B03D17B68B3F5A06FF0D12F4B1B6865
:1004400003F40033002B02D001233B6001E00023C2
:100450003B603B68012B4BD1294A294B1B6843F079
:1004600010031360264A264B1B6823F00303136016
:10047000234A234B1B6843F0020313601F4A1F4BA0
:100480005B6853601D4A1D4B5B6853601B4A1B4BE6
:100490005B6843F480635360184A184B5B6823F42D
:1004A0007C135360154A154B5B6843F4E8135360A3
:1004B000124A124B1B6843F08073136000BF0F4B4E
:1004C0001B6803F00073002BF9D00C4A0B4B5B68E0
:1004D00023F003035360094A084B5B6843F00203AF
:1004E000536000BF054B5B6803F00C03082BF9D188
:1004F0000C37BD465DF8047B704700BF001002401A
:100500000020024080B582B000AF104B7B60104BE2
:100510003B6007E03B681A1D3A607A68111D7960FC
:1005200012681A603B680B4A9342F3D30A480B499E
:100530004FF000028842B8BF40F8042BFADBFFF707
:1005400027FF00F0E5F80837BD4680BDB80B00086E
:10055000000000204C0400204C0400206404002013
:1005600080B400AFFEE700BF80B489B000AF786010
:1005700039600023FB6100233B610023BB61002342
:10058000FB6000237B610023BB603B68DB7803F0EA
:100590000F03FB613B68DB7803F01003002B05D0F1
:1005A0003B689B781A46FB691343FB613B681B88D9
:1005B000DBB2002B44D07B681B687B610023BB61EE
:1005C00038E0BB69012202FA03F3FB603B681B8839
:1005D0001A46FB6813403B613A69FB689A4226D190
:1005E000BB699B00FB60FB680F2202FA03F3BB6050
:1005F000BB68DB437A6913407B61FB68FA6902FAE6
:1006000003F37A6913437B613B68DB78282B05D1C0
:10061000BB6901229A407B685A6108E03B68DB783D
:10062000482B04D1BB6901229A407B681A61BB69DF
:100630000133BB61BB69072BC3D97B687A691A6038
:100640003B681B88FF2B4AD97B685B687B61002372
:10065000BB613EE0BB6908331A4601239340FB604F
:100660003B681B881A46FB6813403B613A69FB688C
:100670009A422BD1BB699B00FB60FB680F2202FAF8
:1006800003F3BB60BB68DB437A6913407B61FB68A3
:10069000FA6902FA03F37A6913437B613B68DB78FA
:1006A000282B07D1BB6908331A46012303FA02F24B
:1006B0007B685A613B68DB78482B07D1BB690833FC
:1006C0001A46012303FA02F27B681A61BB690133FF
:1006D000BB61BB69072BBDD97B687A695A60243737
:1006E000BD465DF8047B704780B483B000AF78608E
:1006F0007B684FF6FF721A807B6802229A707B68D3
:100700000422DA700C37BD465DF8047B704700BFE9
:1007100080B500AF00F088F900F004FA244800F03A
:100720005FF8244800F05CF80120012100F0AAF9EC
:10073000214B00221A6004E01F4B1B6801331E4A44
:1007400013601D4B1B681D4A9342F5D900F0DAF97E
:100750001B4800F045F802200A2100F093F9164BDF
:1007600000221A6004E0144B1B680133124A136024
:10077000114B1B68114A9342F5D900F0C3F9114897
:1007800000F02EF804200A2100F07CF90A4B002228
:100790001A6004E0084B1B680133074A1360064BDC
:1007A0001B68064A9342F5D900F0ACF9B9E700BFDF
:1007B000900B0008A00B0008600400207F969800B2
:1007C000A80B0008B00B000880B582B000AF03464C
:1007D000FB71FB791846FFF7ADFC0837BD4680BDBD
:1007E00080B582B000AF7860054B1B689B68786865
:1007F000194600F027F8034618460837BD4680BD65
:100800004004002080B582B000AF786039600C4BA6
:100810001B689A683B689A4205D0094B1B68DA68E6
:100820003B689A4206D17B68DBB21846FFF7CCFFE3
:100830007B6801E04FF0FF3318460837BD4680BDA6
:100840004004002080B584B000AF78603960002398
:10085000FB6012E07B681B7818463968FFF7D2FF0F
:100860000346B3F1FF3F02D14FF0FF330AE0FB68CC
:100870000133FB607B6801337B607B681B78002B56
:10088000E8D1FB6818461037BD4680BD80B485B0FE
:1008900000AF78600023FB60094B5B68FB60FB687E
:1008A00023F4E063FB60FA687B681343FB60044A4F
:1008B000FB6853601437BD465DF8047B704700BF8A
:1008C0000010024080B483B000AF78600B46FB702C
:1008D000FB78002B06D00949084B9A697B681343C3
:1008E0008B6106E00549054B9A697B68DB43134041
:1008F0008B610C37BD465DF8047B704700100240E9
:1009000080B483B000AF78600B46FB70FB78002B9F
:1009100006D00949084BDA697B681343CB6106E0CE
:100920000549054BDA697B68DB431340CB610C3723
:10093000BD465DF8047B704700100240ABBE01E08D
:1009400000207047002A00D01060012070470698F0
:100950000188034A914202D1043006907047FEE7B5
:10096000ABBE000080B487B000AF786000237B612D
:1009700000233B610F23FB607B68DB78002B3AD0C0
:10098000274BDB68DB4303F4E0631B0A7B617B6975
:10099000C3F104033B617B69FA6822FA03F3FB604D
:1009A0007B685B781A463B6902FA03F37B617B68DC
:1009B0009B781A46FB6813407A6913437B617B6915
:1009C0001B017B61174A7B681B787969C9B21344A4
:1009D0000A4683F80023134A7B681B785B09DBB265
:1009E00018467B681B7803F01F03012101FA03F30B
:1009F00042F820300FE00B497B681B785B09DBB2C3
:100A000018467B681B7803F01F0301229A4000F10F
:100A1000200341F823201C37BD465DF8047B704756
:100A200000ED00E000E100E080B582B000AF1020F2
:100A30000121FFF747FF0020FFF728FF01200121D8
:100A4000FFF75EFF3B1D1846FFF74EFE0723BB80F6
:100A50001023FB710223BB713B1D09481946FFF7A8
:100A600083FD1C233B7000237B700123BB7001239B
:100A7000FB703B461846FFF775FF0837BD4680BD43
:100A80000010014080B586B000AF03460A46FB71F6
:100A90001346BB80184AFB791370BB881A46520173
:100AA000D21A920013449B009BB2013B9BB23B8243
:100AB000124B1B68124AA2FB03235B0B9BB2013B48
:100AC0009BB2BB8101237B820023FB8107F10C03D6
:100AD0004FF080401946FFF761FB4FF08040012145
:100AE0000122FFF7F7FB4FF080400121FFF7D2FB17
:100AF0001837BD4680BD00BF48040020000000201C
:100B00005917B7D180B500AF4FF0804001210022C6
:100B1000FFF7E0FB4FF080400021FFF7BBFB00F048
:100B200001F880BD80B400AF034B07221A61BD46B7
:100B30005DF8047B704700BF0010014080B483B0B3
:100B400000AF0346FB710549044BDA68FB7953405B
:100B5000CB600C37BD465DF8047B70470010014048
:100B600080B500AF4FF080400121FFF7D7FB03466F
:100B7000002B09D04FF080400121FFF7F9FB034B18
:100B80001B781846FFF7DAFF80BD00BF480400203D
:100B900048656C6C6F20776F726C640D000000000C
:100BA000426C75650D000000477265656E0D0000B2
:080BB0005265640D0000000015
:100BB80000A24A0400000000000000000102030433
:100BC80006070809000000000000000000000000FF
:100BD800010000000000000000000000000000000C
:100BE80000000000000000000000000000000000FD
:100BF80000000000000000000000000000000000ED
:100C080000000000000000000000000000000000DC
:100C180000000000000000000000000000000000CC
:0C0FF800180000200000000004000000B1
:0400000508000000EF
:00000001FF
